{
	"contracts/voting.sol": {
		"voting": {
			"abi": [
				{
					"inputs": [],
					"stateMutability": "nonpayable",
					"type": "constructor"
				},
				{
					"anonymous": false,
					"inputs": [
						{
							"indexed": true,
							"internalType": "address",
							"name": "voter",
							"type": "address"
						},
						{
							"indexed": false,
							"internalType": "address",
							"name": "receiver",
							"type": "address"
						},
						{
							"indexed": false,
							"internalType": "uint256",
							"name": "timestamp",
							"type": "uint256"
						}
					],
					"name": "AddVote",
					"type": "event"
				},
				{
					"anonymous": false,
					"inputs": [
						{
							"indexed": false,
							"internalType": "address",
							"name": "voter",
							"type": "address"
						}
					],
					"name": "RemoveVote",
					"type": "event"
				},
				{
					"anonymous": false,
					"inputs": [
						{
							"indexed": false,
							"internalType": "address",
							"name": "startedBy",
							"type": "address"
						}
					],
					"name": "StartVoting",
					"type": "event"
				},
				{
					"anonymous": false,
					"inputs": [
						{
							"indexed": false,
							"internalType": "address",
							"name": "stoppedBy",
							"type": "address"
						}
					],
					"name": "StopVoting",
					"type": "event"
				},
				{
					"inputs": [
						{
							"internalType": "address",
							"name": "receiver",
							"type": "address"
						}
					],
					"name": "addVote",
					"outputs": [
						{
							"internalType": "bool",
							"name": "",
							"type": "bool"
						}
					],
					"stateMutability": "nonpayable",
					"type": "function"
				},
				{
					"inputs": [
						{
							"internalType": "address",
							"name": "voterAddress",
							"type": "address"
						}
					],
					"name": "getVote",
					"outputs": [
						{
							"internalType": "address",
							"name": "candidateAddress",
							"type": "address"
						}
					],
					"stateMutability": "view",
					"type": "function"
				},
				{
					"inputs": [],
					"name": "isVoting",
					"outputs": [
						{
							"internalType": "bool",
							"name": "",
							"type": "bool"
						}
					],
					"stateMutability": "view",
					"type": "function"
				},
				{
					"inputs": [],
					"name": "removeVote",
					"outputs": [
						{
							"internalType": "bool",
							"name": "",
							"type": "bool"
						}
					],
					"stateMutability": "nonpayable",
					"type": "function"
				},
				{
					"inputs": [],
					"name": "startVoting",
					"outputs": [
						{
							"internalType": "bool",
							"name": "",
							"type": "bool"
						}
					],
					"stateMutability": "nonpayable",
					"type": "function"
				},
				{
					"inputs": [],
					"name": "stopVoting",
					"outputs": [
						{
							"internalType": "bool",
							"name": "",
							"type": "bool"
						}
					],
					"stateMutability": "nonpayable",
					"type": "function"
				},
				{
					"inputs": [
						{
							"internalType": "address",
							"name": "",
							"type": "address"
						}
					],
					"name": "votes",
					"outputs": [
						{
							"internalType": "address",
							"name": "receiver",
							"type": "address"
						},
						{
							"internalType": "uint256",
							"name": "timestamp",
							"type": "uint256"
						}
					],
					"stateMutability": "view",
					"type": "function"
				}
			],
			"devdoc": {
				"kind": "dev",
				"methods": {},
				"version": 1
			},
			"evm": {
				"assembly": "    /* \"contracts/voting.sol\":61:1402  contract voting{... */\n  mstore(0x40, 0x80)\n    /* \"contracts/voting.sol\":463:510  constructor() {... */\n  callvalue\n  dup1\n  iszero\n  tag_1\n  jumpi\n  0x00\n  dup1\n  revert\ntag_1:\n  pop\n    /* \"contracts/voting.sol\":497:502  false */\n  0x00\n    /* \"contracts/voting.sol\":488:496  isVoting */\n  dup1\n  0x00\n    /* \"contracts/voting.sol\":488:502  isVoting=false */\n  0x0100\n  exp\n  dup2\n  sload\n  dup2\n  0xff\n  mul\n  not\n  and\n  swap1\n  dup4\n  iszero\n  iszero\n  mul\n  or\n  swap1\n  sstore\n  pop\n    /* \"contracts/voting.sol\":61:1402  contract voting{... */\n  dataSize(sub_0)\n  dup1\n  dataOffset(sub_0)\n  0x00\n  codecopy\n  0x00\n  return\nstop\n\nsub_0: assembly {\n        /* \"contracts/voting.sol\":61:1402  contract voting{... */\n      mstore(0x40, 0x80)\n      callvalue\n      dup1\n      iszero\n      tag_1\n      jumpi\n      0x00\n      dup1\n      revert\n    tag_1:\n      pop\n      jumpi(tag_2, lt(calldatasize, 0x04))\n      shr(0xe0, calldataload(0x00))\n      dup1\n      0x6cea0e46\n      gt\n      tag_10\n      jumpi\n      dup1\n      0x6cea0e46\n      eq\n      tag_6\n      jumpi\n      dup1\n      0x8d337b81\n      eq\n      tag_7\n      jumpi\n      dup1\n      0xd8bff5a5\n      eq\n      tag_8\n      jumpi\n      dup1\n      0xfab2f86b\n      eq\n      tag_9\n      jumpi\n      jump(tag_2)\n    tag_10:\n      dup1\n      0x1bbef399\n      eq\n      tag_3\n      jumpi\n      dup1\n      0x1ec6b60a\n      eq\n      tag_4\n      jumpi\n      dup1\n      0x49aa4ee2\n      eq\n      tag_5\n      jumpi\n    tag_2:\n      0x00\n      dup1\n      revert\n        /* \"contracts/voting.sol\":81:101  bool public isVoting */\n    tag_3:\n      tag_11\n      tag_12\n      jump\t// in\n    tag_11:\n      mload(0x40)\n      tag_13\n      swap2\n      swap1\n      tag_14\n      jump\t// in\n    tag_13:\n      mload(0x40)\n      dup1\n      swap2\n      sub\n      swap1\n      return\n        /* \"contracts/voting.sol\":518:656  function startVoting() external returns(bool){... */\n    tag_4:\n      tag_15\n      tag_16\n      jump\t// in\n    tag_15:\n      mload(0x40)\n      tag_17\n      swap2\n      swap1\n      tag_14\n      jump\t// in\n    tag_17:\n      mload(0x40)\n      dup1\n      swap2\n      sub\n      swap1\n      return\n        /* \"contracts/voting.sol\":1098:1249  function removeVote() external returns(bool){... */\n    tag_5:\n      tag_18\n      tag_19\n      jump\t// in\n    tag_18:\n      mload(0x40)\n      tag_20\n      swap2\n      swap1\n      tag_14\n      jump\t// in\n    tag_20:\n      mload(0x40)\n      dup1\n      swap2\n      sub\n      swap1\n      return\n        /* \"contracts/voting.sol\":809:1090  function addVote(address receiver) external returns(bool){... */\n    tag_6:\n      tag_21\n      0x04\n      dup1\n      calldatasize\n      sub\n      dup2\n      add\n      swap1\n      tag_22\n      swap2\n      swap1\n      tag_23\n      jump\t// in\n    tag_22:\n      tag_24\n      jump\t// in\n    tag_21:\n      mload(0x40)\n      tag_25\n      swap2\n      swap1\n      tag_14\n      jump\t// in\n    tag_25:\n      mload(0x40)\n      dup1\n      swap2\n      sub\n      swap1\n      return\n        /* \"contracts/voting.sol\":1257:1397  function getVote(address voterAddress) external view returns(address candidateAddress){... */\n    tag_7:\n      tag_26\n      0x04\n      dup1\n      calldatasize\n      sub\n      dup2\n      add\n      swap1\n      tag_27\n      swap2\n      swap1\n      tag_23\n      jump\t// in\n    tag_27:\n      tag_28\n      jump\t// in\n    tag_26:\n      mload(0x40)\n      tag_29\n      swap2\n      swap1\n      tag_30\n      jump\t// in\n    tag_29:\n      mload(0x40)\n      dup1\n      swap2\n      sub\n      swap1\n      return\n        /* \"contracts/voting.sol\":190:224  mapping(address=>Vote)public votes */\n    tag_8:\n      tag_31\n      0x04\n      dup1\n      calldatasize\n      sub\n      dup2\n      add\n      swap1\n      tag_32\n      swap2\n      swap1\n      tag_23\n      jump\t// in\n    tag_32:\n      tag_33\n      jump\t// in\n    tag_31:\n      mload(0x40)\n      tag_34\n      swap3\n      swap2\n      swap1\n      tag_35\n      jump\t// in\n    tag_34:\n      mload(0x40)\n      dup1\n      swap2\n      sub\n      swap1\n      return\n        /* \"contracts/voting.sol\":664:801  function stopVoting() external returns(bool){... */\n    tag_9:\n      tag_36\n      tag_37\n      jump\t// in\n    tag_36:\n      mload(0x40)\n      tag_38\n      swap2\n      swap1\n      tag_14\n      jump\t// in\n    tag_38:\n      mload(0x40)\n      dup1\n      swap2\n      sub\n      swap1\n      return\n        /* \"contracts/voting.sol\":81:101  bool public isVoting */\n    tag_12:\n      0x00\n      dup1\n      sload\n      swap1\n      0x0100\n      exp\n      swap1\n      div\n      0xff\n      and\n      dup2\n      jump\t// out\n        /* \"contracts/voting.sol\":518:656  function startVoting() external returns(bool){... */\n    tag_16:\n        /* \"contracts/voting.sol\":558:562  bool */\n      0x00\n        /* \"contracts/voting.sol\":583:587  true */\n      0x01\n        /* \"contracts/voting.sol\":574:582  isVoting */\n      0x00\n      dup1\n        /* \"contracts/voting.sol\":574:587  isVoting=true */\n      0x0100\n      exp\n      dup2\n      sload\n      dup2\n      0xff\n      mul\n      not\n      and\n      swap1\n      dup4\n      iszero\n      iszero\n      mul\n      or\n      swap1\n      sstore\n      pop\n        /* \"contracts/voting.sol\":603:626  StartVoting(msg.sender) */\n      0x84d66542381393079134898f2436f7ba19b5fab5b4ae13da6b78e7454395661d\n        /* \"contracts/voting.sol\":615:625  msg.sender */\n      caller\n        /* \"contracts/voting.sol\":603:626  StartVoting(msg.sender) */\n      mload(0x40)\n      tag_40\n      swap2\n      swap1\n      tag_30\n      jump\t// in\n    tag_40:\n      mload(0x40)\n      dup1\n      swap2\n      sub\n      swap1\n      log1\n        /* \"contracts/voting.sol\":644:648  true */\n      0x01\n        /* \"contracts/voting.sol\":637:648  return true */\n      swap1\n      pop\n        /* \"contracts/voting.sol\":518:656  function startVoting() external returns(bool){... */\n      swap1\n      jump\t// out\n        /* \"contracts/voting.sol\":1098:1249  function removeVote() external returns(bool){... */\n    tag_19:\n        /* \"contracts/voting.sol\":1137:1141  bool */\n      0x00\n        /* \"contracts/voting.sol\":1160:1165  votes */\n      0x01\n        /* \"contracts/voting.sol\":1160:1177  votes[msg.sender] */\n      0x00\n        /* \"contracts/voting.sol\":1166:1176  msg.sender */\n      caller\n        /* \"contracts/voting.sol\":1160:1177  votes[msg.sender] */\n      0xffffffffffffffffffffffffffffffffffffffff\n      and\n      0xffffffffffffffffffffffffffffffffffffffff\n      and\n      dup2\n      mstore\n      0x20\n      add\n      swap1\n      dup2\n      mstore\n      0x20\n      add\n      0x00\n      keccak256\n      0x00\n        /* \"contracts/voting.sol\":1153:1177  delete votes[msg.sender] */\n      dup1\n      dup3\n      add\n      exp(0x0100, 0x00)\n      dup2\n      sload\n      swap1\n      0xffffffffffffffffffffffffffffffffffffffff\n      mul\n      not\n      and\n      swap1\n      sstore\n      0x01\n      dup3\n      add\n      0x00\n      swap1\n      sstore\n      pop\n      pop\n        /* \"contracts/voting.sol\":1195:1217  RemoveVote(msg.sender) */\n      0xd835495b0cc14603f691a3161f6442cbe3602e0745f2c60b948d0d3268e6c6c7\n        /* \"contracts/voting.sol\":1206:1216  msg.sender */\n      caller\n        /* \"contracts/voting.sol\":1195:1217  RemoveVote(msg.sender) */\n      mload(0x40)\n      tag_42\n      swap2\n      swap1\n      tag_30\n      jump\t// in\n    tag_42:\n      mload(0x40)\n      dup1\n      swap2\n      sub\n      swap1\n      log1\n        /* \"contracts/voting.sol\":1235:1239  true */\n      0x01\n        /* \"contracts/voting.sol\":1228:1239  return true */\n      swap1\n      pop\n        /* \"contracts/voting.sol\":1098:1249  function removeVote() external returns(bool){... */\n      swap1\n      jump\t// out\n        /* \"contracts/voting.sol\":809:1090  function addVote(address receiver) external returns(bool){... */\n    tag_24:\n        /* \"contracts/voting.sol\":861:865  bool */\n      0x00\n        /* \"contracts/voting.sol\":904:912  receiver */\n      dup2\n        /* \"contracts/voting.sol\":877:882  votes */\n      0x01\n        /* \"contracts/voting.sol\":877:894  votes[msg.sender] */\n      0x00\n        /* \"contracts/voting.sol\":883:893  msg.sender */\n      caller\n        /* \"contracts/voting.sol\":877:894  votes[msg.sender] */\n      0xffffffffffffffffffffffffffffffffffffffff\n      and\n      0xffffffffffffffffffffffffffffffffffffffff\n      and\n      dup2\n      mstore\n      0x20\n      add\n      swap1\n      dup2\n      mstore\n      0x20\n      add\n      0x00\n      keccak256\n        /* \"contracts/voting.sol\":877:903  votes[msg.sender].receiver */\n      0x00\n      add\n      0x00\n        /* \"contracts/voting.sol\":877:912  votes[msg.sender].receiver=receiver */\n      0x0100\n      exp\n      dup2\n      sload\n      dup2\n      0xffffffffffffffffffffffffffffffffffffffff\n      mul\n      not\n      and\n      swap1\n      dup4\n      0xffffffffffffffffffffffffffffffffffffffff\n      and\n      mul\n      or\n      swap1\n      sstore\n      pop\n        /* \"contracts/voting.sol\":951:966  block.timestamp */\n      timestamp\n        /* \"contracts/voting.sol\":923:928  votes */\n      0x01\n        /* \"contracts/voting.sol\":923:940  votes[msg.sender] */\n      0x00\n        /* \"contracts/voting.sol\":929:939  msg.sender */\n      caller\n        /* \"contracts/voting.sol\":923:940  votes[msg.sender] */\n      0xffffffffffffffffffffffffffffffffffffffff\n      and\n      0xffffffffffffffffffffffffffffffffffffffff\n      and\n      dup2\n      mstore\n      0x20\n      add\n      swap1\n      dup2\n      mstore\n      0x20\n      add\n      0x00\n      keccak256\n        /* \"contracts/voting.sol\":923:950  votes[msg.sender].timestamp */\n      0x01\n      add\n        /* \"contracts/voting.sol\":923:966  votes[msg.sender].timestamp=block.timestamp */\n      dup2\n      swap1\n      sstore\n      pop\n        /* \"contracts/voting.sol\":992:1002  msg.sender */\n      caller\n        /* \"contracts/voting.sol\":984:1060  AddVote(msg.sender, votes[msg.sender].receiver, votes[msg.sender].timestamp) */\n      0xffffffffffffffffffffffffffffffffffffffff\n      and\n      0x80eacb8485891d1331e1057618388e157b8496244c3b2eab9302445007b46811\n        /* \"contracts/voting.sol\":1004:1009  votes */\n      0x01\n        /* \"contracts/voting.sol\":1004:1021  votes[msg.sender] */\n      0x00\n        /* \"contracts/voting.sol\":1010:1020  msg.sender */\n      caller\n        /* \"contracts/voting.sol\":1004:1021  votes[msg.sender] */\n      0xffffffffffffffffffffffffffffffffffffffff\n      and\n      0xffffffffffffffffffffffffffffffffffffffff\n      and\n      dup2\n      mstore\n      0x20\n      add\n      swap1\n      dup2\n      mstore\n      0x20\n      add\n      0x00\n      keccak256\n        /* \"contracts/voting.sol\":1004:1030  votes[msg.sender].receiver */\n      0x00\n      add\n      0x00\n      swap1\n      sload\n      swap1\n      0x0100\n      exp\n      swap1\n      div\n      0xffffffffffffffffffffffffffffffffffffffff\n      and\n        /* \"contracts/voting.sol\":1032:1037  votes */\n      0x01\n        /* \"contracts/voting.sol\":1032:1049  votes[msg.sender] */\n      0x00\n        /* \"contracts/voting.sol\":1038:1048  msg.sender */\n      caller\n        /* \"contracts/voting.sol\":1032:1049  votes[msg.sender] */\n      0xffffffffffffffffffffffffffffffffffffffff\n      and\n      0xffffffffffffffffffffffffffffffffffffffff\n      and\n      dup2\n      mstore\n      0x20\n      add\n      swap1\n      dup2\n      mstore\n      0x20\n      add\n      0x00\n      keccak256\n        /* \"contracts/voting.sol\":1032:1059  votes[msg.sender].timestamp */\n      0x01\n      add\n      sload\n        /* \"contracts/voting.sol\":984:1060  AddVote(msg.sender, votes[msg.sender].receiver, votes[msg.sender].timestamp) */\n      mload(0x40)\n      tag_44\n      swap3\n      swap2\n      swap1\n      tag_35\n      jump\t// in\n    tag_44:\n      mload(0x40)\n      dup1\n      swap2\n      sub\n      swap1\n      log2\n        /* \"contracts/voting.sol\":1078:1082  true */\n      0x01\n        /* \"contracts/voting.sol\":1071:1082  return true */\n      swap1\n      pop\n        /* \"contracts/voting.sol\":809:1090  function addVote(address receiver) external returns(bool){... */\n      swap2\n      swap1\n      pop\n      jump\t// out\n        /* \"contracts/voting.sol\":1257:1397  function getVote(address voterAddress) external view returns(address candidateAddress){... */\n    tag_28:\n        /* \"contracts/voting.sol\":1318:1342  address candidateAddress */\n      0x00\n        /* \"contracts/voting.sol\":1361:1366  votes */\n      0x01\n        /* \"contracts/voting.sol\":1361:1380  votes[voterAddress] */\n      0x00\n        /* \"contracts/voting.sol\":1367:1379  voterAddress */\n      dup4\n        /* \"contracts/voting.sol\":1361:1380  votes[voterAddress] */\n      0xffffffffffffffffffffffffffffffffffffffff\n      and\n      0xffffffffffffffffffffffffffffffffffffffff\n      and\n      dup2\n      mstore\n      0x20\n      add\n      swap1\n      dup2\n      mstore\n      0x20\n      add\n      0x00\n      keccak256\n        /* \"contracts/voting.sol\":1361:1389  votes[voterAddress].receiver */\n      0x00\n      add\n      0x00\n      swap1\n      sload\n      swap1\n      0x0100\n      exp\n      swap1\n      div\n      0xffffffffffffffffffffffffffffffffffffffff\n      and\n        /* \"contracts/voting.sol\":1354:1389  return votes[voterAddress].receiver */\n      swap1\n      pop\n        /* \"contracts/voting.sol\":1257:1397  function getVote(address voterAddress) external view returns(address candidateAddress){... */\n      swap2\n      swap1\n      pop\n      jump\t// out\n        /* \"contracts/voting.sol\":190:224  mapping(address=>Vote)public votes */\n    tag_33:\n      mstore(0x20, 0x01)\n      dup1\n      0x00\n      mstore\n      keccak256(0x00, 0x40)\n      0x00\n      swap2\n      pop\n      swap1\n      pop\n      dup1\n      0x00\n      add\n      0x00\n      swap1\n      sload\n      swap1\n      0x0100\n      exp\n      swap1\n      div\n      0xffffffffffffffffffffffffffffffffffffffff\n      and\n      swap1\n      dup1\n      0x01\n      add\n      sload\n      swap1\n      pop\n      dup3\n      jump\t// out\n        /* \"contracts/voting.sol\":664:801  function stopVoting() external returns(bool){... */\n    tag_37:\n        /* \"contracts/voting.sol\":703:707  bool */\n      0x00\n        /* \"contracts/voting.sol\":728:733  false */\n      dup1\n        /* \"contracts/voting.sol\":719:727  isVoting */\n      0x00\n      dup1\n        /* \"contracts/voting.sol\":719:733  isVoting=false */\n      0x0100\n      exp\n      dup2\n      sload\n      dup2\n      0xff\n      mul\n      not\n      and\n      swap1\n      dup4\n      iszero\n      iszero\n      mul\n      or\n      swap1\n      sstore\n      pop\n        /* \"contracts/voting.sol\":749:771  StopVoting(msg.sender) */\n      0xd027f2ec970e91ce28ac9b4d8c78f89288e3b6029357e79cbd81578f250aa4a1\n        /* \"contracts/voting.sol\":760:770  msg.sender */\n      caller\n        /* \"contracts/voting.sol\":749:771  StopVoting(msg.sender) */\n      mload(0x40)\n      tag_47\n      swap2\n      swap1\n      tag_30\n      jump\t// in\n    tag_47:\n      mload(0x40)\n      dup1\n      swap2\n      sub\n      swap1\n      log1\n        /* \"contracts/voting.sol\":789:793  true */\n      0x01\n        /* \"contracts/voting.sol\":782:793  return true */\n      swap1\n      pop\n        /* \"contracts/voting.sol\":664:801  function stopVoting() external returns(bool){... */\n      swap1\n      jump\t// out\n        /* \"#utility.yul\":7:97   */\n    tag_48:\n        /* \"#utility.yul\":41:48   */\n      0x00\n        /* \"#utility.yul\":84:89   */\n      dup2\n        /* \"#utility.yul\":77:90   */\n      iszero\n        /* \"#utility.yul\":70:91   */\n      iszero\n        /* \"#utility.yul\":59:91   */\n      swap1\n      pop\n        /* \"#utility.yul\":7:97   */\n      swap2\n      swap1\n      pop\n      jump\t// out\n        /* \"#utility.yul\":103:212   */\n    tag_49:\n        /* \"#utility.yul\":184:205   */\n      tag_63\n        /* \"#utility.yul\":199:204   */\n      dup2\n        /* \"#utility.yul\":184:205   */\n      tag_48\n      jump\t// in\n    tag_63:\n        /* \"#utility.yul\":179:182   */\n      dup3\n        /* \"#utility.yul\":172:206   */\n      mstore\n        /* \"#utility.yul\":103:212   */\n      pop\n      pop\n      jump\t// out\n        /* \"#utility.yul\":218:428   */\n    tag_14:\n        /* \"#utility.yul\":305:309   */\n      0x00\n        /* \"#utility.yul\":343:345   */\n      0x20\n        /* \"#utility.yul\":332:341   */\n      dup3\n        /* \"#utility.yul\":328:346   */\n      add\n        /* \"#utility.yul\":320:346   */\n      swap1\n      pop\n        /* \"#utility.yul\":356:421   */\n      tag_65\n        /* \"#utility.yul\":418:419   */\n      0x00\n        /* \"#utility.yul\":407:416   */\n      dup4\n        /* \"#utility.yul\":403:420   */\n      add\n        /* \"#utility.yul\":394:400   */\n      dup5\n        /* \"#utility.yul\":356:421   */\n      tag_49\n      jump\t// in\n    tag_65:\n        /* \"#utility.yul\":218:428   */\n      swap3\n      swap2\n      pop\n      pop\n      jump\t// out\n        /* \"#utility.yul\":515:632   */\n    tag_51:\n        /* \"#utility.yul\":624:625   */\n      0x00\n        /* \"#utility.yul\":621:622   */\n      dup1\n        /* \"#utility.yul\":614:626   */\n      revert\n        /* \"#utility.yul\":761:887   */\n    tag_53:\n        /* \"#utility.yul\":798:805   */\n      0x00\n        /* \"#utility.yul\":838:880   */\n      0xffffffffffffffffffffffffffffffffffffffff\n        /* \"#utility.yul\":831:836   */\n      dup3\n        /* \"#utility.yul\":827:881   */\n      and\n        /* \"#utility.yul\":816:881   */\n      swap1\n      pop\n        /* \"#utility.yul\":761:887   */\n      swap2\n      swap1\n      pop\n      jump\t// out\n        /* \"#utility.yul\":893:989   */\n    tag_54:\n        /* \"#utility.yul\":930:937   */\n      0x00\n        /* \"#utility.yul\":959:983   */\n      tag_71\n        /* \"#utility.yul\":977:982   */\n      dup3\n        /* \"#utility.yul\":959:983   */\n      tag_53\n      jump\t// in\n    tag_71:\n        /* \"#utility.yul\":948:983   */\n      swap1\n      pop\n        /* \"#utility.yul\":893:989   */\n      swap2\n      swap1\n      pop\n      jump\t// out\n        /* \"#utility.yul\":995:1117   */\n    tag_55:\n        /* \"#utility.yul\":1068:1092   */\n      tag_73\n        /* \"#utility.yul\":1086:1091   */\n      dup2\n        /* \"#utility.yul\":1068:1092   */\n      tag_54\n      jump\t// in\n    tag_73:\n        /* \"#utility.yul\":1061:1066   */\n      dup2\n        /* \"#utility.yul\":1058:1093   */\n      eq\n        /* \"#utility.yul\":1048:1111   */\n      tag_74\n      jumpi\n        /* \"#utility.yul\":1107:1108   */\n      0x00\n        /* \"#utility.yul\":1104:1105   */\n      dup1\n        /* \"#utility.yul\":1097:1109   */\n      revert\n        /* \"#utility.yul\":1048:1111   */\n    tag_74:\n        /* \"#utility.yul\":995:1117   */\n      pop\n      jump\t// out\n        /* \"#utility.yul\":1123:1262   */\n    tag_56:\n        /* \"#utility.yul\":1169:1174   */\n      0x00\n        /* \"#utility.yul\":1207:1213   */\n      dup2\n        /* \"#utility.yul\":1194:1214   */\n      calldataload\n        /* \"#utility.yul\":1185:1214   */\n      swap1\n      pop\n        /* \"#utility.yul\":1223:1256   */\n      tag_76\n        /* \"#utility.yul\":1250:1255   */\n      dup2\n        /* \"#utility.yul\":1223:1256   */\n      tag_55\n      jump\t// in\n    tag_76:\n        /* \"#utility.yul\":1123:1262   */\n      swap3\n      swap2\n      pop\n      pop\n      jump\t// out\n        /* \"#utility.yul\":1268:1597   */\n    tag_23:\n        /* \"#utility.yul\":1327:1333   */\n      0x00\n        /* \"#utility.yul\":1376:1378   */\n      0x20\n        /* \"#utility.yul\":1364:1373   */\n      dup3\n        /* \"#utility.yul\":1355:1362   */\n      dup5\n        /* \"#utility.yul\":1351:1374   */\n      sub\n        /* \"#utility.yul\":1347:1379   */\n      slt\n        /* \"#utility.yul\":1344:1463   */\n      iszero\n      tag_78\n      jumpi\n        /* \"#utility.yul\":1382:1461   */\n      tag_79\n      tag_51\n      jump\t// in\n    tag_79:\n        /* \"#utility.yul\":1344:1463   */\n    tag_78:\n        /* \"#utility.yul\":1502:1503   */\n      0x00\n        /* \"#utility.yul\":1527:1580   */\n      tag_80\n        /* \"#utility.yul\":1572:1579   */\n      dup5\n        /* \"#utility.yul\":1563:1569   */\n      dup3\n        /* \"#utility.yul\":1552:1561   */\n      dup6\n        /* \"#utility.yul\":1548:1570   */\n      add\n        /* \"#utility.yul\":1527:1580   */\n      tag_56\n      jump\t// in\n    tag_80:\n        /* \"#utility.yul\":1517:1580   */\n      swap2\n      pop\n        /* \"#utility.yul\":1473:1590   */\n      pop\n        /* \"#utility.yul\":1268:1597   */\n      swap3\n      swap2\n      pop\n      pop\n      jump\t// out\n        /* \"#utility.yul\":1603:1721   */\n    tag_57:\n        /* \"#utility.yul\":1690:1714   */\n      tag_82\n        /* \"#utility.yul\":1708:1713   */\n      dup2\n        /* \"#utility.yul\":1690:1714   */\n      tag_54\n      jump\t// in\n    tag_82:\n        /* \"#utility.yul\":1685:1688   */\n      dup3\n        /* \"#utility.yul\":1678:1715   */\n      mstore\n        /* \"#utility.yul\":1603:1721   */\n      pop\n      pop\n      jump\t// out\n        /* \"#utility.yul\":1727:1949   */\n    tag_30:\n        /* \"#utility.yul\":1820:1824   */\n      0x00\n        /* \"#utility.yul\":1858:1860   */\n      0x20\n        /* \"#utility.yul\":1847:1856   */\n      dup3\n        /* \"#utility.yul\":1843:1861   */\n      add\n        /* \"#utility.yul\":1835:1861   */\n      swap1\n      pop\n        /* \"#utility.yul\":1871:1942   */\n      tag_84\n        /* \"#utility.yul\":1939:1940   */\n      0x00\n        /* \"#utility.yul\":1928:1937   */\n      dup4\n        /* \"#utility.yul\":1924:1941   */\n      add\n        /* \"#utility.yul\":1915:1921   */\n      dup5\n        /* \"#utility.yul\":1871:1942   */\n      tag_57\n      jump\t// in\n    tag_84:\n        /* \"#utility.yul\":1727:1949   */\n      swap3\n      swap2\n      pop\n      pop\n      jump\t// out\n        /* \"#utility.yul\":1955:2032   */\n    tag_58:\n        /* \"#utility.yul\":1992:1999   */\n      0x00\n        /* \"#utility.yul\":2021:2026   */\n      dup2\n        /* \"#utility.yul\":2010:2026   */\n      swap1\n      pop\n        /* \"#utility.yul\":1955:2032   */\n      swap2\n      swap1\n      pop\n      jump\t// out\n        /* \"#utility.yul\":2038:2156   */\n    tag_59:\n        /* \"#utility.yul\":2125:2149   */\n      tag_87\n        /* \"#utility.yul\":2143:2148   */\n      dup2\n        /* \"#utility.yul\":2125:2149   */\n      tag_58\n      jump\t// in\n    tag_87:\n        /* \"#utility.yul\":2120:2123   */\n      dup3\n        /* \"#utility.yul\":2113:2150   */\n      mstore\n        /* \"#utility.yul\":2038:2156   */\n      pop\n      pop\n      jump\t// out\n        /* \"#utility.yul\":2162:2494   */\n    tag_35:\n        /* \"#utility.yul\":2283:2287   */\n      0x00\n        /* \"#utility.yul\":2321:2323   */\n      0x40\n        /* \"#utility.yul\":2310:2319   */\n      dup3\n        /* \"#utility.yul\":2306:2324   */\n      add\n        /* \"#utility.yul\":2298:2324   */\n      swap1\n      pop\n        /* \"#utility.yul\":2334:2405   */\n      tag_89\n        /* \"#utility.yul\":2402:2403   */\n      0x00\n        /* \"#utility.yul\":2391:2400   */\n      dup4\n        /* \"#utility.yul\":2387:2404   */\n      add\n        /* \"#utility.yul\":2378:2384   */\n      dup6\n        /* \"#utility.yul\":2334:2405   */\n      tag_57\n      jump\t// in\n    tag_89:\n        /* \"#utility.yul\":2415:2487   */\n      tag_90\n        /* \"#utility.yul\":2483:2485   */\n      0x20\n        /* \"#utility.yul\":2472:2481   */\n      dup4\n        /* \"#utility.yul\":2468:2486   */\n      add\n        /* \"#utility.yul\":2459:2465   */\n      dup5\n        /* \"#utility.yul\":2415:2487   */\n      tag_59\n      jump\t// in\n    tag_90:\n        /* \"#utility.yul\":2162:2494   */\n      swap4\n      swap3\n      pop\n      pop\n      pop\n      jump\t// out\n\n    auxdata: 0xa26469706673582212205dcfb9ef869124dddec453287dfeb8c6c41c29f2dc7ae07d8fc6ab9620c2d09864736f6c63430008190033\n}\n",
				"bytecode": {
					"linkReferences": {},
					"object": "6080604052348015600e575f80fd5b505f805f6101000a81548160ff0219169083151502179055506106ab806100345f395ff3fe608060405234801561000f575f80fd5b506004361061007b575f3560e01c80636cea0e46116100595780636cea0e46146100d95780638d337b8114610109578063d8bff5a514610139578063fab2f86b1461016a5761007b565b80631bbef3991461007f5780631ec6b60a1461009d57806349aa4ee2146100bb575b5f80fd5b610087610188565b604051610094919061056c565b60405180910390f35b6100a5610198565b6040516100b2919061056c565b60405180910390f35b6100c36101f0565b6040516100d0919061056c565b60405180910390f35b6100f360048036038101906100ee91906105e3565b61029b565b604051610100919061056c565b60405180910390f35b610123600480360381019061011e91906105e3565b610455565b604051610130919061061d565b60405180910390f35b610153600480360381019061014e91906105e3565b6104bc565b60405161016192919061064e565b60405180910390f35b6101726104fb565b60405161017f919061056c565b60405180910390f35b5f8054906101000a900460ff1681565b5f60015f806101000a81548160ff0219169083151502179055507f84d66542381393079134898f2436f7ba19b5fab5b4ae13da6b78e7454395661d336040516101e1919061061d565b60405180910390a16001905090565b5f60015f3373ffffffffffffffffffffffffffffffffffffffff1673ffffffffffffffffffffffffffffffffffffffff1681526020019081526020015f205f8082015f6101000a81549073ffffffffffffffffffffffffffffffffffffffff0219169055600182015f905550507fd835495b0cc14603f691a3161f6442cbe3602e0745f2c60b948d0d3268e6c6c73360405161028c919061061d565b60405180910390a16001905090565b5f8160015f3373ffffffffffffffffffffffffffffffffffffffff1673ffffffffffffffffffffffffffffffffffffffff1681526020019081526020015f205f015f6101000a81548173ffffffffffffffffffffffffffffffffffffffff021916908373ffffffffffffffffffffffffffffffffffffffff1602179055504260015f3373ffffffffffffffffffffffffffffffffffffffff1673ffffffffffffffffffffffffffffffffffffffff1681526020019081526020015f20600101819055503373ffffffffffffffffffffffffffffffffffffffff167f80eacb8485891d1331e1057618388e157b8496244c3b2eab9302445007b4681160015f3373ffffffffffffffffffffffffffffffffffffffff1673ffffffffffffffffffffffffffffffffffffffff1681526020019081526020015f205f015f9054906101000a900473ffffffffffffffffffffffffffffffffffffffff1660015f3373ffffffffffffffffffffffffffffffffffffffff1673ffffffffffffffffffffffffffffffffffffffff1681526020019081526020015f206001015460405161044492919061064e565b60405180910390a260019050919050565b5f60015f8373ffffffffffffffffffffffffffffffffffffffff1673ffffffffffffffffffffffffffffffffffffffff1681526020019081526020015f205f015f9054906101000a900473ffffffffffffffffffffffffffffffffffffffff169050919050565b6001602052805f5260405f205f91509050805f015f9054906101000a900473ffffffffffffffffffffffffffffffffffffffff16908060010154905082565b5f805f806101000a81548160ff0219169083151502179055507fd027f2ec970e91ce28ac9b4d8c78f89288e3b6029357e79cbd81578f250aa4a133604051610543919061061d565b60405180910390a16001905090565b5f8115159050919050565b61056681610552565b82525050565b5f60208201905061057f5f83018461055d565b92915050565b5f80fd5b5f73ffffffffffffffffffffffffffffffffffffffff82169050919050565b5f6105b282610589565b9050919050565b6105c2816105a8565b81146105cc575f80fd5b50565b5f813590506105dd816105b9565b92915050565b5f602082840312156105f8576105f7610585565b5b5f610605848285016105cf565b91505092915050565b610617816105a8565b82525050565b5f6020820190506106305f83018461060e565b92915050565b5f819050919050565b61064881610636565b82525050565b5f6040820190506106615f83018561060e565b61066e602083018461063f565b939250505056fea26469706673582212205dcfb9ef869124dddec453287dfeb8c6c41c29f2dc7ae07d8fc6ab9620c2d09864736f6c63430008190033",
					"opcodes": "PUSH1 0x80 PUSH1 0x40 MSTORE CALLVALUE DUP1 ISZERO PUSH1 0xE JUMPI PUSH0 DUP1 REVERT JUMPDEST POP PUSH0 DUP1 PUSH0 PUSH2 0x100 EXP DUP2 SLOAD DUP2 PUSH1 0xFF MUL NOT AND SWAP1 DUP4 ISZERO ISZERO MUL OR SWAP1 SSTORE POP PUSH2 0x6AB DUP1 PUSH2 0x34 PUSH0 CODECOPY PUSH0 RETURN INVALID PUSH1 0x80 PUSH1 0x40 MSTORE CALLVALUE DUP1 ISZERO PUSH2 0xF JUMPI PUSH0 DUP1 REVERT JUMPDEST POP PUSH1 0x4 CALLDATASIZE LT PUSH2 0x7B JUMPI PUSH0 CALLDATALOAD PUSH1 0xE0 SHR DUP1 PUSH4 0x6CEA0E46 GT PUSH2 0x59 JUMPI DUP1 PUSH4 0x6CEA0E46 EQ PUSH2 0xD9 JUMPI DUP1 PUSH4 0x8D337B81 EQ PUSH2 0x109 JUMPI DUP1 PUSH4 0xD8BFF5A5 EQ PUSH2 0x139 JUMPI DUP1 PUSH4 0xFAB2F86B EQ PUSH2 0x16A JUMPI PUSH2 0x7B JUMP JUMPDEST DUP1 PUSH4 0x1BBEF399 EQ PUSH2 0x7F JUMPI DUP1 PUSH4 0x1EC6B60A EQ PUSH2 0x9D JUMPI DUP1 PUSH4 0x49AA4EE2 EQ PUSH2 0xBB JUMPI JUMPDEST PUSH0 DUP1 REVERT JUMPDEST PUSH2 0x87 PUSH2 0x188 JUMP JUMPDEST PUSH1 0x40 MLOAD PUSH2 0x94 SWAP2 SWAP1 PUSH2 0x56C JUMP JUMPDEST PUSH1 0x40 MLOAD DUP1 SWAP2 SUB SWAP1 RETURN JUMPDEST PUSH2 0xA5 PUSH2 0x198 JUMP JUMPDEST PUSH1 0x40 MLOAD PUSH2 0xB2 SWAP2 SWAP1 PUSH2 0x56C JUMP JUMPDEST PUSH1 0x40 MLOAD DUP1 SWAP2 SUB SWAP1 RETURN JUMPDEST PUSH2 0xC3 PUSH2 0x1F0 JUMP JUMPDEST PUSH1 0x40 MLOAD PUSH2 0xD0 SWAP2 SWAP1 PUSH2 0x56C JUMP JUMPDEST PUSH1 0x40 MLOAD DUP1 SWAP2 SUB SWAP1 RETURN JUMPDEST PUSH2 0xF3 PUSH1 0x4 DUP1 CALLDATASIZE SUB DUP2 ADD SWAP1 PUSH2 0xEE SWAP2 SWAP1 PUSH2 0x5E3 JUMP JUMPDEST PUSH2 0x29B JUMP JUMPDEST PUSH1 0x40 MLOAD PUSH2 0x100 SWAP2 SWAP1 PUSH2 0x56C JUMP JUMPDEST PUSH1 0x40 MLOAD DUP1 SWAP2 SUB SWAP1 RETURN JUMPDEST PUSH2 0x123 PUSH1 0x4 DUP1 CALLDATASIZE SUB DUP2 ADD SWAP1 PUSH2 0x11E SWAP2 SWAP1 PUSH2 0x5E3 JUMP JUMPDEST PUSH2 0x455 JUMP JUMPDEST PUSH1 0x40 MLOAD PUSH2 0x130 SWAP2 SWAP1 PUSH2 0x61D JUMP JUMPDEST PUSH1 0x40 MLOAD DUP1 SWAP2 SUB SWAP1 RETURN JUMPDEST PUSH2 0x153 PUSH1 0x4 DUP1 CALLDATASIZE SUB DUP2 ADD SWAP1 PUSH2 0x14E SWAP2 SWAP1 PUSH2 0x5E3 JUMP JUMPDEST PUSH2 0x4BC JUMP JUMPDEST PUSH1 0x40 MLOAD PUSH2 0x161 SWAP3 SWAP2 SWAP1 PUSH2 0x64E JUMP JUMPDEST PUSH1 0x40 MLOAD DUP1 SWAP2 SUB SWAP1 RETURN JUMPDEST PUSH2 0x172 PUSH2 0x4FB JUMP JUMPDEST PUSH1 0x40 MLOAD PUSH2 0x17F SWAP2 SWAP1 PUSH2 0x56C JUMP JUMPDEST PUSH1 0x40 MLOAD DUP1 SWAP2 SUB SWAP1 RETURN JUMPDEST PUSH0 DUP1 SLOAD SWAP1 PUSH2 0x100 EXP SWAP1 DIV PUSH1 0xFF AND DUP2 JUMP JUMPDEST PUSH0 PUSH1 0x1 PUSH0 DUP1 PUSH2 0x100 EXP DUP2 SLOAD DUP2 PUSH1 0xFF MUL NOT AND SWAP1 DUP4 ISZERO ISZERO MUL OR SWAP1 SSTORE POP PUSH32 0x84D66542381393079134898F2436F7BA19B5FAB5B4AE13DA6B78E7454395661D CALLER PUSH1 0x40 MLOAD PUSH2 0x1E1 SWAP2 SWAP1 PUSH2 0x61D JUMP JUMPDEST PUSH1 0x40 MLOAD DUP1 SWAP2 SUB SWAP1 LOG1 PUSH1 0x1 SWAP1 POP SWAP1 JUMP JUMPDEST PUSH0 PUSH1 0x1 PUSH0 CALLER PUSH20 0xFFFFFFFFFFFFFFFFFFFFFFFFFFFFFFFFFFFFFFFF AND PUSH20 0xFFFFFFFFFFFFFFFFFFFFFFFFFFFFFFFFFFFFFFFF AND DUP2 MSTORE PUSH1 0x20 ADD SWAP1 DUP2 MSTORE PUSH1 0x20 ADD PUSH0 KECCAK256 PUSH0 DUP1 DUP3 ADD PUSH0 PUSH2 0x100 EXP DUP2 SLOAD SWAP1 PUSH20 0xFFFFFFFFFFFFFFFFFFFFFFFFFFFFFFFFFFFFFFFF MUL NOT AND SWAP1 SSTORE PUSH1 0x1 DUP3 ADD PUSH0 SWAP1 SSTORE POP POP PUSH32 0xD835495B0CC14603F691A3161F6442CBE3602E0745F2C60B948D0D3268E6C6C7 CALLER PUSH1 0x40 MLOAD PUSH2 0x28C SWAP2 SWAP1 PUSH2 0x61D JUMP JUMPDEST PUSH1 0x40 MLOAD DUP1 SWAP2 SUB SWAP1 LOG1 PUSH1 0x1 SWAP1 POP SWAP1 JUMP JUMPDEST PUSH0 DUP2 PUSH1 0x1 PUSH0 CALLER PUSH20 0xFFFFFFFFFFFFFFFFFFFFFFFFFFFFFFFFFFFFFFFF AND PUSH20 0xFFFFFFFFFFFFFFFFFFFFFFFFFFFFFFFFFFFFFFFF AND DUP2 MSTORE PUSH1 0x20 ADD SWAP1 DUP2 MSTORE PUSH1 0x20 ADD PUSH0 KECCAK256 PUSH0 ADD PUSH0 PUSH2 0x100 EXP DUP2 SLOAD DUP2 PUSH20 0xFFFFFFFFFFFFFFFFFFFFFFFFFFFFFFFFFFFFFFFF MUL NOT AND SWAP1 DUP4 PUSH20 0xFFFFFFFFFFFFFFFFFFFFFFFFFFFFFFFFFFFFFFFF AND MUL OR SWAP1 SSTORE POP TIMESTAMP PUSH1 0x1 PUSH0 CALLER PUSH20 0xFFFFFFFFFFFFFFFFFFFFFFFFFFFFFFFFFFFFFFFF AND PUSH20 0xFFFFFFFFFFFFFFFFFFFFFFFFFFFFFFFFFFFFFFFF AND DUP2 MSTORE PUSH1 0x20 ADD SWAP1 DUP2 MSTORE PUSH1 0x20 ADD PUSH0 KECCAK256 PUSH1 0x1 ADD DUP2 SWAP1 SSTORE POP CALLER PUSH20 0xFFFFFFFFFFFFFFFFFFFFFFFFFFFFFFFFFFFFFFFF AND PUSH32 0x80EACB8485891D1331E1057618388E157B8496244C3B2EAB9302445007B46811 PUSH1 0x1 PUSH0 CALLER PUSH20 0xFFFFFFFFFFFFFFFFFFFFFFFFFFFFFFFFFFFFFFFF AND PUSH20 0xFFFFFFFFFFFFFFFFFFFFFFFFFFFFFFFFFFFFFFFF AND DUP2 MSTORE PUSH1 0x20 ADD SWAP1 DUP2 MSTORE PUSH1 0x20 ADD PUSH0 KECCAK256 PUSH0 ADD PUSH0 SWAP1 SLOAD SWAP1 PUSH2 0x100 EXP SWAP1 DIV PUSH20 0xFFFFFFFFFFFFFFFFFFFFFFFFFFFFFFFFFFFFFFFF AND PUSH1 0x1 PUSH0 CALLER PUSH20 0xFFFFFFFFFFFFFFFFFFFFFFFFFFFFFFFFFFFFFFFF AND PUSH20 0xFFFFFFFFFFFFFFFFFFFFFFFFFFFFFFFFFFFFFFFF AND DUP2 MSTORE PUSH1 0x20 ADD SWAP1 DUP2 MSTORE PUSH1 0x20 ADD PUSH0 KECCAK256 PUSH1 0x1 ADD SLOAD PUSH1 0x40 MLOAD PUSH2 0x444 SWAP3 SWAP2 SWAP1 PUSH2 0x64E JUMP JUMPDEST PUSH1 0x40 MLOAD DUP1 SWAP2 SUB SWAP1 LOG2 PUSH1 0x1 SWAP1 POP SWAP2 SWAP1 POP JUMP JUMPDEST PUSH0 PUSH1 0x1 PUSH0 DUP4 PUSH20 0xFFFFFFFFFFFFFFFFFFFFFFFFFFFFFFFFFFFFFFFF AND PUSH20 0xFFFFFFFFFFFFFFFFFFFFFFFFFFFFFFFFFFFFFFFF AND DUP2 MSTORE PUSH1 0x20 ADD SWAP1 DUP2 MSTORE PUSH1 0x20 ADD PUSH0 KECCAK256 PUSH0 ADD PUSH0 SWAP1 SLOAD SWAP1 PUSH2 0x100 EXP SWAP1 DIV PUSH20 0xFFFFFFFFFFFFFFFFFFFFFFFFFFFFFFFFFFFFFFFF AND SWAP1 POP SWAP2 SWAP1 POP JUMP JUMPDEST PUSH1 0x1 PUSH1 0x20 MSTORE DUP1 PUSH0 MSTORE PUSH1 0x40 PUSH0 KECCAK256 PUSH0 SWAP2 POP SWAP1 POP DUP1 PUSH0 ADD PUSH0 SWAP1 SLOAD SWAP1 PUSH2 0x100 EXP SWAP1 DIV PUSH20 0xFFFFFFFFFFFFFFFFFFFFFFFFFFFFFFFFFFFFFFFF AND SWAP1 DUP1 PUSH1 0x1 ADD SLOAD SWAP1 POP DUP3 JUMP JUMPDEST PUSH0 DUP1 PUSH0 DUP1 PUSH2 0x100 EXP DUP2 SLOAD DUP2 PUSH1 0xFF MUL NOT AND SWAP1 DUP4 ISZERO ISZERO MUL OR SWAP1 SSTORE POP PUSH32 0xD027F2EC970E91CE28AC9B4D8C78F89288E3B6029357E79CBD81578F250AA4A1 CALLER PUSH1 0x40 MLOAD PUSH2 0x543 SWAP2 SWAP1 PUSH2 0x61D JUMP JUMPDEST PUSH1 0x40 MLOAD DUP1 SWAP2 SUB SWAP1 LOG1 PUSH1 0x1 SWAP1 POP SWAP1 JUMP JUMPDEST PUSH0 DUP2 ISZERO ISZERO SWAP1 POP SWAP2 SWAP1 POP JUMP JUMPDEST PUSH2 0x566 DUP2 PUSH2 0x552 JUMP JUMPDEST DUP3 MSTORE POP POP JUMP JUMPDEST PUSH0 PUSH1 0x20 DUP3 ADD SWAP1 POP PUSH2 0x57F PUSH0 DUP4 ADD DUP5 PUSH2 0x55D JUMP JUMPDEST SWAP3 SWAP2 POP POP JUMP JUMPDEST PUSH0 DUP1 REVERT JUMPDEST PUSH0 PUSH20 0xFFFFFFFFFFFFFFFFFFFFFFFFFFFFFFFFFFFFFFFF DUP3 AND SWAP1 POP SWAP2 SWAP1 POP JUMP JUMPDEST PUSH0 PUSH2 0x5B2 DUP3 PUSH2 0x589 JUMP JUMPDEST SWAP1 POP SWAP2 SWAP1 POP JUMP JUMPDEST PUSH2 0x5C2 DUP2 PUSH2 0x5A8 JUMP JUMPDEST DUP2 EQ PUSH2 0x5CC JUMPI PUSH0 DUP1 REVERT JUMPDEST POP JUMP JUMPDEST PUSH0 DUP2 CALLDATALOAD SWAP1 POP PUSH2 0x5DD DUP2 PUSH2 0x5B9 JUMP JUMPDEST SWAP3 SWAP2 POP POP JUMP JUMPDEST PUSH0 PUSH1 0x20 DUP3 DUP5 SUB SLT ISZERO PUSH2 0x5F8 JUMPI PUSH2 0x5F7 PUSH2 0x585 JUMP JUMPDEST JUMPDEST PUSH0 PUSH2 0x605 DUP5 DUP3 DUP6 ADD PUSH2 0x5CF JUMP JUMPDEST SWAP2 POP POP SWAP3 SWAP2 POP POP JUMP JUMPDEST PUSH2 0x617 DUP2 PUSH2 0x5A8 JUMP JUMPDEST DUP3 MSTORE POP POP JUMP JUMPDEST PUSH0 PUSH1 0x20 DUP3 ADD SWAP1 POP PUSH2 0x630 PUSH0 DUP4 ADD DUP5 PUSH2 0x60E JUMP JUMPDEST SWAP3 SWAP2 POP POP JUMP JUMPDEST PUSH0 DUP2 SWAP1 POP SWAP2 SWAP1 POP JUMP JUMPDEST PUSH2 0x648 DUP2 PUSH2 0x636 JUMP JUMPDEST DUP3 MSTORE POP POP JUMP JUMPDEST PUSH0 PUSH1 0x40 DUP3 ADD SWAP1 POP PUSH2 0x661 PUSH0 DUP4 ADD DUP6 PUSH2 0x60E JUMP JUMPDEST PUSH2 0x66E PUSH1 0x20 DUP4 ADD DUP5 PUSH2 0x63F JUMP JUMPDEST SWAP4 SWAP3 POP POP POP JUMP INVALID LOG2 PUSH5 0x6970667358 0x22 SLT KECCAK256 TSTORE 0xCF 0xB9 0xEF DUP7 SWAP2 0x24 0xDD 0xDE 0xC4 MSTORE8 0x28 PUSH30 0xFEB8C6C41C29F2DC7AE07D8FC6AB9620C2D09864736F6C63430008190033 "
				},
				"gasEstimates": {
					"creation": {
						"codeDepositCost": "341400",
						"executionCost": "24643",
						"totalCost": "366043"
					},
					"external": {
						"addVote(address)": "infinite",
						"getVote(address)": "infinite",
						"isVoting()": "2464",
						"removeVote()": "30969",
						"startVoting()": "25856",
						"stopVoting()": "25899",
						"votes(address)": "infinite"
					}
				},
				"methodIdentifiers": {
					"addVote(address)": "6cea0e46",
					"getVote(address)": "8d337b81",
					"isVoting()": "1bbef399",
					"removeVote()": "49aa4ee2",
					"startVoting()": "1ec6b60a",
					"stopVoting()": "fab2f86b",
					"votes(address)": "d8bff5a5"
				}
			},
			"storageLayout": {
				"storage": [
					{
						"astId": 3,
						"contract": "contracts/voting.sol:voting",
						"label": "isVoting",
						"offset": 0,
						"slot": "0",
						"type": "t_bool"
					},
					{
						"astId": 13,
						"contract": "contracts/voting.sol:voting",
						"label": "votes",
						"offset": 0,
						"slot": "1",
						"type": "t_mapping(t_address,t_struct(Vote)8_storage)"
					}
				],
				"types": {
					"t_address": {
						"encoding": "inplace",
						"label": "address",
						"numberOfBytes": "20"
					},
					"t_bool": {
						"encoding": "inplace",
						"label": "bool",
						"numberOfBytes": "1"
					},
					"t_mapping(t_address,t_struct(Vote)8_storage)": {
						"encoding": "mapping",
						"key": "t_address",
						"label": "mapping(address => struct voting.Vote)",
						"numberOfBytes": "32",
						"value": "t_struct(Vote)8_storage"
					},
					"t_struct(Vote)8_storage": {
						"encoding": "inplace",
						"label": "struct voting.Vote",
						"members": [
							{
								"astId": 5,
								"contract": "contracts/voting.sol:voting",
								"label": "receiver",
								"offset": 0,
								"slot": "0",
								"type": "t_address"
							},
							{
								"astId": 7,
								"contract": "contracts/voting.sol:voting",
								"label": "timestamp",
								"offset": 0,
								"slot": "1",
								"type": "t_uint256"
							}
						],
						"numberOfBytes": "64"
					},
					"t_uint256": {
						"encoding": "inplace",
						"label": "uint256",
						"numberOfBytes": "32"
					}
				}
			},
			"userdoc": {
				"kind": "user",
				"methods": {},
				"version": 1
			}
		}
	}
}